{
  "fileName": "MyToken.sol",
  "contractName": "MyToken",
  "source": "// contracts/MyToken.sol\n// SPDX-License-Identifier: MIT\npragma solidity ^0.7.0;\n\nimport \"@openzeppelin/contracts/access/AccessControl.sol\";\nimport \"@openzeppelin/contracts/token/ERC20/ERC20.sol\";\n\ncontract MyToken is ERC20, AccessControl {\n    bytes32 public constant MINTER_ROLE = keccak256(\"MINTER_ROLE\");\n    bytes32 public constant BURNER_ROLE = keccak256(\"BURNER_ROLE\");\n\n    constructor(address minter, address burner) public ERC20(\"MyToken\", \"TKN\") {\n        _setupRole(MINTER_ROLE, minter);\n        _setupRole(BURNER_ROLE, burner);\n    }\n\n    function mint(address to, uint256 amount) public {\n        require(hasRole(MINTER_ROLE, msg.sender), \"Caller is not a minter\");\n        _mint(to, amount);\n    }\n\n    function burn(address from, uint256 amount) public {\n        require(hasRole(BURNER_ROLE, msg.sender), \"Caller is not a burner\");\n        _burn(from, amount);\n    }\n}",
  "sourcePath": "contracts/MyToken.sol",
  "abi": [
    {
      "inputs": [
        {
          "internalType": "address",
          "name": "minter",
          "type": "address"
        },
        {
          "internalType": "address",
          "name": "burner",
          "type": "address"
        }
      ],
      "stateMutability": "nonpayable",
      "type": "constructor"
    },
    {
      "anonymous": false,
      "inputs": [
        {
          "indexed": true,
          "internalType": "address",
          "name": "owner",
          "type": "address"
        },
        {
          "indexed": true,
          "internalType": "address",
          "name": "spender",
          "type": "address"
        },
        {
          "indexed": false,
          "internalType": "uint256",
          "name": "value",
          "type": "uint256"
        }
      ],
      "name": "Approval",
      "type": "event"
    },
    {
      "anonymous": false,
      "inputs": [
        {
          "indexed": true,
          "internalType": "bytes32",
          "name": "role",
          "type": "bytes32"
        },
        {
          "indexed": true,
          "internalType": "bytes32",
          "name": "previousAdminRole",
          "type": "bytes32"
        },
        {
          "indexed": true,
          "internalType": "bytes32",
          "name": "newAdminRole",
          "type": "bytes32"
        }
      ],
      "name": "RoleAdminChanged",
      "type": "event"
    },
    {
      "anonymous": false,
      "inputs": [
        {
          "indexed": true,
          "internalType": "bytes32",
          "name": "role",
          "type": "bytes32"
        },
        {
          "indexed": true,
          "internalType": "address",
          "name": "account",
          "type": "address"
        },
        {
          "indexed": true,
          "internalType": "address",
          "name": "sender",
          "type": "address"
        }
      ],
      "name": "RoleGranted",
      "type": "event"
    },
    {
      "anonymous": false,
      "inputs": [
        {
          "indexed": true,
          "internalType": "bytes32",
          "name": "role",
          "type": "bytes32"
        },
        {
          "indexed": true,
          "internalType": "address",
          "name": "account",
          "type": "address"
        },
        {
          "indexed": true,
          "internalType": "address",
          "name": "sender",
          "type": "address"
        }
      ],
      "name": "RoleRevoked",
      "type": "event"
    },
    {
      "anonymous": false,
      "inputs": [
        {
          "indexed": true,
          "internalType": "address",
          "name": "from",
          "type": "address"
        },
        {
          "indexed": true,
          "internalType": "address",
          "name": "to",
          "type": "address"
        },
        {
          "indexed": false,
          "internalType": "uint256",
          "name": "value",
          "type": "uint256"
        }
      ],
      "name": "Transfer",
      "type": "event"
    },
    {
      "inputs": [],
      "name": "BURNER_ROLE",
      "outputs": [
        {
          "internalType": "bytes32",
          "name": "",
          "type": "bytes32"
        }
      ],
      "stateMutability": "view",
      "type": "function"
    },
    {
      "inputs": [],
      "name": "DEFAULT_ADMIN_ROLE",
      "outputs": [
        {
          "internalType": "bytes32",
          "name": "",
          "type": "bytes32"
        }
      ],
      "stateMutability": "view",
      "type": "function"
    },
    {
      "inputs": [],
      "name": "MINTER_ROLE",
      "outputs": [
        {
          "internalType": "bytes32",
          "name": "",
          "type": "bytes32"
        }
      ],
      "stateMutability": "view",
      "type": "function"
    },
    {
      "inputs": [
        {
          "internalType": "address",
          "name": "owner",
          "type": "address"
        },
        {
          "internalType": "address",
          "name": "spender",
          "type": "address"
        }
      ],
      "name": "allowance",
      "outputs": [
        {
          "internalType": "uint256",
          "name": "",
          "type": "uint256"
        }
      ],
      "stateMutability": "view",
      "type": "function"
    },
    {
      "inputs": [
        {
          "internalType": "address",
          "name": "spender",
          "type": "address"
        },
        {
          "internalType": "uint256",
          "name": "amount",
          "type": "uint256"
        }
      ],
      "name": "approve",
      "outputs": [
        {
          "internalType": "bool",
          "name": "",
          "type": "bool"
        }
      ],
      "stateMutability": "nonpayable",
      "type": "function"
    },
    {
      "inputs": [
        {
          "internalType": "address",
          "name": "account",
          "type": "address"
        }
      ],
      "name": "balanceOf",
      "outputs": [
        {
          "internalType": "uint256",
          "name": "",
          "type": "uint256"
        }
      ],
      "stateMutability": "view",
      "type": "function"
    },
    {
      "inputs": [
        {
          "internalType": "address",
          "name": "from",
          "type": "address"
        },
        {
          "internalType": "uint256",
          "name": "amount",
          "type": "uint256"
        }
      ],
      "name": "burn",
      "outputs": [],
      "stateMutability": "nonpayable",
      "type": "function"
    },
    {
      "inputs": [],
      "name": "decimals",
      "outputs": [
        {
          "internalType": "uint8",
          "name": "",
          "type": "uint8"
        }
      ],
      "stateMutability": "view",
      "type": "function"
    },
    {
      "inputs": [
        {
          "internalType": "address",
          "name": "spender",
          "type": "address"
        },
        {
          "internalType": "uint256",
          "name": "subtractedValue",
          "type": "uint256"
        }
      ],
      "name": "decreaseAllowance",
      "outputs": [
        {
          "internalType": "bool",
          "name": "",
          "type": "bool"
        }
      ],
      "stateMutability": "nonpayable",
      "type": "function"
    },
    {
      "inputs": [
        {
          "internalType": "bytes32",
          "name": "role",
          "type": "bytes32"
        }
      ],
      "name": "getRoleAdmin",
      "outputs": [
        {
          "internalType": "bytes32",
          "name": "",
          "type": "bytes32"
        }
      ],
      "stateMutability": "view",
      "type": "function"
    },
    {
      "inputs": [
        {
          "internalType": "bytes32",
          "name": "role",
          "type": "bytes32"
        },
        {
          "internalType": "uint256",
          "name": "index",
          "type": "uint256"
        }
      ],
      "name": "getRoleMember",
      "outputs": [
        {
          "internalType": "address",
          "name": "",
          "type": "address"
        }
      ],
      "stateMutability": "view",
      "type": "function"
    },
    {
      "inputs": [
        {
          "internalType": "bytes32",
          "name": "role",
          "type": "bytes32"
        }
      ],
      "name": "getRoleMemberCount",
      "outputs": [
        {
          "internalType": "uint256",
          "name": "",
          "type": "uint256"
        }
      ],
      "stateMutability": "view",
      "type": "function"
    },
    {
      "inputs": [
        {
          "internalType": "bytes32",
          "name": "role",
          "type": "bytes32"
        },
        {
          "internalType": "address",
          "name": "account",
          "type": "address"
        }
      ],
      "name": "grantRole",
      "outputs": [],
      "stateMutability": "nonpayable",
      "type": "function"
    },
    {
      "inputs": [
        {
          "internalType": "bytes32",
          "name": "role",
          "type": "bytes32"
        },
        {
          "internalType": "address",
          "name": "account",
          "type": "address"
        }
      ],
      "name": "hasRole",
      "outputs": [
        {
          "internalType": "bool",
          "name": "",
          "type": "bool"
        }
      ],
      "stateMutability": "view",
      "type": "function"
    },
    {
      "inputs": [
        {
          "internalType": "address",
          "name": "spender",
          "type": "address"
        },
        {
          "internalType": "uint256",
          "name": "addedValue",
          "type": "uint256"
        }
      ],
      "name": "increaseAllowance",
      "outputs": [
        {
          "internalType": "bool",
          "name": "",
          "type": "bool"
        }
      ],
      "stateMutability": "nonpayable",
      "type": "function"
    },
    {
      "inputs": [
        {
          "internalType": "address",
          "name": "to",
          "type": "address"
        },
        {
          "internalType": "uint256",
          "name": "amount",
          "type": "uint256"
        }
      ],
      "name": "mint",
      "outputs": [],
      "stateMutability": "nonpayable",
      "type": "function"
    },
    {
      "inputs": [],
      "name": "name",
      "outputs": [
        {
          "internalType": "string",
          "name": "",
          "type": "string"
        }
      ],
      "stateMutability": "view",
      "type": "function"
    },
    {
      "inputs": [
        {
          "internalType": "bytes32",
          "name": "role",
          "type": "bytes32"
        },
        {
          "internalType": "address",
          "name": "account",
          "type": "address"
        }
      ],
      "name": "renounceRole",
      "outputs": [],
      "stateMutability": "nonpayable",
      "type": "function"
    },
    {
      "inputs": [
        {
          "internalType": "bytes32",
          "name": "role",
          "type": "bytes32"
        },
        {
          "internalType": "address",
          "name": "account",
          "type": "address"
        }
      ],
      "name": "revokeRole",
      "outputs": [],
      "stateMutability": "nonpayable",
      "type": "function"
    },
    {
      "inputs": [],
      "name": "symbol",
      "outputs": [
        {
          "internalType": "string",
          "name": "",
          "type": "string"
        }
      ],
      "stateMutability": "view",
      "type": "function"
    },
    {
      "inputs": [],
      "name": "totalSupply",
      "outputs": [
        {
          "internalType": "uint256",
          "name": "",
          "type": "uint256"
        }
      ],
      "stateMutability": "view",
      "type": "function"
    },
    {
      "inputs": [
        {
          "internalType": "address",
          "name": "recipient",
          "type": "address"
        },
        {
          "internalType": "uint256",
          "name": "amount",
          "type": "uint256"
        }
      ],
      "name": "transfer",
      "outputs": [
        {
          "internalType": "bool",
          "name": "",
          "type": "bool"
        }
      ],
      "stateMutability": "nonpayable",
      "type": "function"
    },
    {
      "inputs": [
        {
          "internalType": "address",
          "name": "sender",
          "type": "address"
        },
        {
          "internalType": "address",
          "name": "recipient",
          "type": "address"
        },
        {
          "internalType": "uint256",
          "name": "amount",
          "type": "uint256"
        }
      ],
      "name": "transferFrom",
      "outputs": [
        {
          "internalType": "bool",
          "name": "",
          "type": "bool"
        }
      ],
      "stateMutability": "nonpayable",
      "type": "function"
    }
  ],
  "bytecode": "0x60806040523480156200001157600080fd5b5060405162001ac138038062001ac1833981810160405260408110156200003757600080fd5b508051602091820151604080518082018252600781527f4d79546f6b656e00000000000000000000000000000000000000000000000000818601908152825180840190935260038084527f544b4e0000000000000000000000000000000000000000000000000000000000968401969096528151949593949193620000bf929091906200025b565b508051620000d59060049060208401906200025b565b50506005805460ff1916601217905550620001117f9f2df0fed2c77648de5860a4cc508cd0818c85b8b8a1ab4ceeef8d981c8956a68362000145565b6200013d7f3c11d16cbaffd01df69ce1c404f6340ee057498f5f00246190ea54220576a8488262000145565b5050620002f7565b62000151828262000155565b5050565b60008281526006602090815260409091206200017c91839062000c2d620001d0821b17901c565b1562000151576200018c620001f0565b6001600160a01b0316816001600160a01b0316837f2f8788117e7eff1d82e926ec794901d17c78024a50270940304540a733656f0d60405160405180910390a45050565b6000620001e7836001600160a01b038416620001f4565b90505b92915050565b3390565b600062000202838362000243565b6200023a57508154600181810184556000848152602080822090930184905584548482528286019093526040902091909155620001ea565b506000620001ea565b60009081526001919091016020526040902054151590565b828054600181600116156101000203166002900490600052602060002090601f016020900481019282601f106200029e57805160ff1916838001178555620002ce565b82800160010185558215620002ce579182015b82811115620002ce578251825591602001919060010190620002b1565b50620002dc929150620002e0565b5090565b5b80821115620002dc5760008155600101620002e1565b6117ba80620003076000396000f3fe608060405234801561001057600080fd5b506004361061018d5760003560e01c806370a08231116100e3578063a457c2d71161008c578063d539139311610066578063d539139314610572578063d547741f1461057a578063dd62ed3e146105b35761018d565b8063a457c2d7146104e3578063a9059cbb1461051c578063ca15c873146105555761018d565b806395d89b41116100bd57806395d89b411461049a5780639dc29fac146104a2578063a217fddf146104db5761018d565b806370a08231146103e25780639010d07c1461041557806391d14854146104615761018d565b8063282c51f31161014557806336568abe1161011f57806336568abe14610337578063395093511461037057806340c10f19146103a95761018d565b8063282c51f3146102d65780632f2ff15d146102de578063313ce567146103195761018d565b806318160ddd1161017657806318160ddd1461025c57806323b872dd14610276578063248a9ca3146102b95761018d565b806306fdde0314610192578063095ea7b31461020f575b600080fd5b61019a6105ee565b6040805160208082528351818301528351919283929083019185019080838360005b838110156101d45781810151838201526020016101bc565b50505050905090810190601f1680156102015780820380516001836020036101000a031916815260200191505b509250505060405180910390f35b6102486004803603604081101561022557600080fd5b5073ffffffffffffffffffffffffffffffffffffffff81351690602001356106a2565b604080519115158252519081900360200190f35b6102646106c0565b60408051918252519081900360200190f35b6102486004803603606081101561028c57600080fd5b5073ffffffffffffffffffffffffffffffffffffffff8135811691602081013590911690604001356106c6565b610264600480360360208110156102cf57600080fd5b5035610767565b61026461077c565b610317600480360360408110156102f457600080fd5b508035906020013573ffffffffffffffffffffffffffffffffffffffff166107a0565b005b61032161080c565b6040805160ff9092168252519081900360200190f35b6103176004803603604081101561034d57600080fd5b508035906020013573ffffffffffffffffffffffffffffffffffffffff16610815565b6102486004803603604081101561038657600080fd5b5073ffffffffffffffffffffffffffffffffffffffff8135169060200135610890565b610317600480360360408110156103bf57600080fd5b5073ffffffffffffffffffffffffffffffffffffffff81351690602001356108eb565b610264600480360360208110156103f857600080fd5b503573ffffffffffffffffffffffffffffffffffffffff16610970565b6104386004803603604081101561042b57600080fd5b5080359060200135610998565b6040805173ffffffffffffffffffffffffffffffffffffffff9092168252519081900360200190f35b6102486004803603604081101561047757600080fd5b508035906020013573ffffffffffffffffffffffffffffffffffffffff166109b7565b61019a6109cf565b610317600480360360408110156104b857600080fd5b5073ffffffffffffffffffffffffffffffffffffffff8135169060200135610a4e565b610264610ad3565b610248600480360360408110156104f957600080fd5b5073ffffffffffffffffffffffffffffffffffffffff8135169060200135610ad8565b6102486004803603604081101561053257600080fd5b5073ffffffffffffffffffffffffffffffffffffffff8135169060200135610b4d565b6102646004803603602081101561056b57600080fd5b5035610b61565b610264610b78565b6103176004803603604081101561059057600080fd5b508035906020013573ffffffffffffffffffffffffffffffffffffffff16610b9c565b610264600480360360408110156105c957600080fd5b5073ffffffffffffffffffffffffffffffffffffffff81358116916020013516610bf5565b60038054604080516020601f60027fffffffffffffffffffffffffffffffffffffffffffffffffffffffffffffffff6101006001881615020190951694909404938401819004810282018101909252828152606093909290918301828280156106985780601f1061066d57610100808354040283529160200191610698565b820191906000526020600020905b81548152906001019060200180831161067b57829003601f168201915b5050505050905090565b60006106b66106af610c4f565b8484610c53565b5060015b92915050565b60025490565b60006106d3848484610d66565b61075d846106df610c4f565b6107588560405180606001604052806028815260200161169f6028913973ffffffffffffffffffffffffffffffffffffffff8a1660009081526001602052604081209061072a610c4f565b73ffffffffffffffffffffffffffffffffffffffff1681526020810191909152604001600020549190610f02565b610c53565b5060019392505050565b60009081526006602052604090206002015490565b7f3c11d16cbaffd01df69ce1c404f6340ee057498f5f00246190ea54220576a84881565b6000828152600660205260409020600201546107c3906107be610c4f565b6109b7565b6107fe5760405162461bcd60e51b815260040180806020018281038252602f8152602001806115d6602f913960400191505060405180910390fd5b6108088282610f99565b5050565b60055460ff1690565b61081d610c4f565b73ffffffffffffffffffffffffffffffffffffffff168173ffffffffffffffffffffffffffffffffffffffff16146108865760405162461bcd60e51b815260040180806020018281038252602f815260200180611756602f913960400191505060405180910390fd5b610808828261101c565b60006106b661089d610c4f565b8461075885600160006108ae610c4f565b73ffffffffffffffffffffffffffffffffffffffff908116825260208083019390935260409182016000908120918c16815292529020549061109f565b6109157f9f2df0fed2c77648de5860a4cc508cd0818c85b8b8a1ab4ceeef8d981c8956a6336109b7565b610966576040805162461bcd60e51b815260206004820152601660248201527f43616c6c6572206973206e6f742061206d696e74657200000000000000000000604482015290519081900360640190fd5b61080882826110f9565b73ffffffffffffffffffffffffffffffffffffffff1660009081526020819052604090205490565b60008281526006602052604081206109b09083611210565b9392505050565b60008281526006602052604081206109b0908361121c565b60048054604080516020601f60027fffffffffffffffffffffffffffffffffffffffffffffffffffffffffffffffff6101006001881615020190951694909404938401819004810282018101909252828152606093909290918301828280156106985780601f1061066d57610100808354040283529160200191610698565b610a787f3c11d16cbaffd01df69ce1c404f6340ee057498f5f00246190ea54220576a848336109b7565b610ac9576040805162461bcd60e51b815260206004820152601660248201527f43616c6c6572206973206e6f742061206275726e657200000000000000000000604482015290519081900360640190fd5b610808828261123e565b600081565b60006106b6610ae5610c4f565b84610758856040518060600160405280602581526020016117316025913960016000610b0f610c4f565b73ffffffffffffffffffffffffffffffffffffffff908116825260208083019390935260409182016000908120918d16815292529020549190610f02565b60006106b6610b5a610c4f565b8484610d66565b60008181526006602052604081206106ba9061136e565b7f9f2df0fed2c77648de5860a4cc508cd0818c85b8b8a1ab4ceeef8d981c8956a681565b600082815260066020526040902060020154610bba906107be610c4f565b6108865760405162461bcd60e51b815260040180806020018281038252603081526020018061166f6030913960400191505060405180910390fd5b73ffffffffffffffffffffffffffffffffffffffff918216600090815260016020908152604080832093909416825291909152205490565b60006109b08373ffffffffffffffffffffffffffffffffffffffff8416611379565b3390565b73ffffffffffffffffffffffffffffffffffffffff8316610ca55760405162461bcd60e51b815260040180806020018281038252602481526020018061170d6024913960400191505060405180910390fd5b73ffffffffffffffffffffffffffffffffffffffff8216610cf75760405162461bcd60e51b81526004018080602001828103825260228152602001806116276022913960400191505060405180910390fd5b73ffffffffffffffffffffffffffffffffffffffff808416600081815260016020908152604080832094871680845294825291829020859055815185815291517f8c5be1e5ebec7d5bd14f71427d1e84f3dd0314c0f7b2291e5b200ac8c7c3b9259281900390910190a3505050565b73ffffffffffffffffffffffffffffffffffffffff8316610db85760405162461bcd60e51b81526004018080602001828103825260258152602001806116e86025913960400191505060405180910390fd5b73ffffffffffffffffffffffffffffffffffffffff8216610e0a5760405162461bcd60e51b81526004018080602001828103825260238152602001806115b36023913960400191505060405180910390fd5b610e158383836113c3565b610e5f816040518060600160405280602681526020016116496026913973ffffffffffffffffffffffffffffffffffffffff86166000908152602081905260409020549190610f02565b73ffffffffffffffffffffffffffffffffffffffff8085166000908152602081905260408082209390935590841681522054610e9b908261109f565b73ffffffffffffffffffffffffffffffffffffffff8084166000818152602081815260409182902094909455805185815290519193928716927fddf252ad1be2c89b69c2b068fc378daa952ba7f163c4a11628f55a4df523b3ef92918290030190a3505050565b60008184841115610f915760405162461bcd60e51b81526004018080602001828103825283818151815260200191508051906020019080838360005b83811015610f56578181015183820152602001610f3e565b50505050905090810190601f168015610f835780820380516001836020036101000a031916815260200191505b509250505060405180910390fd5b505050900390565b6000828152600660205260409020610fb19082610c2d565b1561080857610fbe610c4f565b73ffffffffffffffffffffffffffffffffffffffff168173ffffffffffffffffffffffffffffffffffffffff16837f2f8788117e7eff1d82e926ec794901d17c78024a50270940304540a733656f0d60405160405180910390a45050565b600082815260066020526040902061103490826113c8565b1561080857611041610c4f565b73ffffffffffffffffffffffffffffffffffffffff168173ffffffffffffffffffffffffffffffffffffffff16837ff6391f5c32d9c69d2a47ea670b442974b53935d1edc7fd64eb21e047a839171b60405160405180910390a45050565b6000828201838110156109b0576040805162461bcd60e51b815260206004820152601b60248201527f536166654d6174683a206164646974696f6e206f766572666c6f770000000000604482015290519081900360640190fd5b73ffffffffffffffffffffffffffffffffffffffff8216611161576040805162461bcd60e51b815260206004820152601f60248201527f45524332303a206d696e7420746f20746865207a65726f206164647265737300604482015290519081900360640190fd5b61116d600083836113c3565b60025461117a908261109f565b60025573ffffffffffffffffffffffffffffffffffffffff82166000908152602081905260409020546111ad908261109f565b73ffffffffffffffffffffffffffffffffffffffff83166000818152602081815260408083209490945583518581529351929391927fddf252ad1be2c89b69c2b068fc378daa952ba7f163c4a11628f55a4df523b3ef9281900390910190a35050565b60006109b083836113ea565b60006109b08373ffffffffffffffffffffffffffffffffffffffff841661144e565b73ffffffffffffffffffffffffffffffffffffffff82166112905760405162461bcd60e51b81526004018080602001828103825260218152602001806116c76021913960400191505060405180910390fd5b61129c826000836113c3565b6112e6816040518060600160405280602281526020016116056022913973ffffffffffffffffffffffffffffffffffffffff85166000908152602081905260409020549190610f02565b73ffffffffffffffffffffffffffffffffffffffff83166000908152602081905260409020556002546113199082611466565b60025560408051828152905160009173ffffffffffffffffffffffffffffffffffffffff8516917fddf252ad1be2c89b69c2b068fc378daa952ba7f163c4a11628f55a4df523b3ef9181900360200190a35050565b60006106ba826114a8565b6000611385838361144e565b6113bb575081546001818101845560008481526020808220909301849055845484825282860190935260409020919091556106ba565b5060006106ba565b505050565b60006109b08373ffffffffffffffffffffffffffffffffffffffff84166114ac565b8154600090821061142c5760405162461bcd60e51b81526004018080602001828103825260228152602001806115916022913960400191505060405180910390fd5b82600001828154811061143b57fe5b9060005260206000200154905092915050565b60009081526001919091016020526040902054151590565b60006109b083836040518060400160405280601e81526020017f536166654d6174683a207375627472616374696f6e206f766572666c6f770000815250610f02565b5490565b600081815260018301602052604081205480156115865783547fffffffffffffffffffffffffffffffffffffffffffffffffffffffffffffffff80830191908101906000908790839081106114fd57fe5b906000526020600020015490508087600001848154811061151a57fe5b60009182526020808320909101929092558281526001898101909252604090209084019055865487908061154a57fe5b600190038181906000526020600020016000905590558660010160008781526020019081526020016000206000905560019450505050506106ba565b60009150506106ba56fe456e756d657261626c655365743a20696e646578206f7574206f6620626f756e647345524332303a207472616e7366657220746f20746865207a65726f2061646472657373416363657373436f6e74726f6c3a2073656e646572206d75737420626520616e2061646d696e20746f206772616e7445524332303a206275726e20616d6f756e7420657863656564732062616c616e636545524332303a20617070726f766520746f20746865207a65726f206164647265737345524332303a207472616e7366657220616d6f756e7420657863656564732062616c616e6365416363657373436f6e74726f6c3a2073656e646572206d75737420626520616e2061646d696e20746f207265766f6b6545524332303a207472616e7366657220616d6f756e74206578636565647320616c6c6f77616e636545524332303a206275726e2066726f6d20746865207a65726f206164647265737345524332303a207472616e736665722066726f6d20746865207a65726f206164647265737345524332303a20617070726f76652066726f6d20746865207a65726f206164647265737345524332303a2064656372656173656420616c6c6f77616e63652062656c6f77207a65726f416363657373436f6e74726f6c3a2063616e206f6e6c792072656e6f756e636520726f6c657320666f722073656c66a26469706673582212205465dc6933233eee9900c143f38c3ea8ddeb49183a4928448aededff684f0f9a64736f6c63430007000033",
  "compiler": {
    "name": "solc",
    "version": "0.7.0+commit.9e61f92b.Emscripten.clang",
    "optimizer": {
      "enabled": true,
      "runs": 9999
    },
    "evmVersion": "petersburg"
  }
}